{
  "contractName": "BlockchainSplitwise",
  "abi": [
    {
      "anonymous": false,
      "inputs": [
        {
          "indexed": false,
          "internalType": "address",
          "name": "debtor",
          "type": "address"
        },
        {
          "indexed": false,
          "internalType": "address",
          "name": "creditor",
          "type": "address"
        },
        {
          "indexed": false,
          "internalType": "uint32",
          "name": "amount",
          "type": "uint32"
        }
      ],
      "name": "LogAdd_IOU",
      "type": "event"
    },
    {
      "anonymous": false,
      "inputs": [
        {
          "indexed": false,
          "internalType": "address",
          "name": "debtor",
          "type": "address"
        },
        {
          "indexed": false,
          "internalType": "address",
          "name": "creditor",
          "type": "address"
        },
        {
          "indexed": false,
          "internalType": "uint32",
          "name": "amount",
          "type": "uint32"
        },
        {
          "indexed": false,
          "internalType": "bool",
          "name": "sign",
          "type": "bool"
        }
      ],
      "name": "LogAdjustedDebt",
      "type": "event"
    },
    {
      "anonymous": false,
      "inputs": [
        {
          "indexed": false,
          "internalType": "address[]",
          "name": "_path",
          "type": "address[]"
        },
        {
          "indexed": false,
          "internalType": "uint32",
          "name": "amount",
          "type": "uint32"
        }
      ],
      "name": "LogResolvedCycle",
      "type": "event"
    },
    {
      "constant": true,
      "inputs": [
        {
          "internalType": "address",
          "name": "",
          "type": "address"
        }
      ],
      "name": "areDebtors",
      "outputs": [
        {
          "internalType": "bool",
          "name": "",
          "type": "bool"
        }
      ],
      "payable": false,
      "stateMutability": "view",
      "type": "function"
    },
    {
      "constant": true,
      "inputs": [
        {
          "internalType": "address",
          "name": "",
          "type": "address"
        },
        {
          "internalType": "uint256",
          "name": "",
          "type": "uint256"
        }
      ],
      "name": "debtors",
      "outputs": [
        {
          "internalType": "uint32",
          "name": "amt_owed",
          "type": "uint32"
        },
        {
          "internalType": "address",
          "name": "addr",
          "type": "address"
        }
      ],
      "payable": false,
      "stateMutability": "view",
      "type": "function"
    },
    {
      "constant": true,
      "inputs": [],
      "name": "length",
      "outputs": [
        {
          "internalType": "uint256",
          "name": "",
          "type": "uint256"
        }
      ],
      "payable": false,
      "stateMutability": "view",
      "type": "function"
    },
    {
      "constant": true,
      "inputs": [
        {
          "internalType": "address",
          "name": "debtor",
          "type": "address"
        },
        {
          "internalType": "address",
          "name": "creditor",
          "type": "address"
        }
      ],
      "name": "lookup",
      "outputs": [
        {
          "internalType": "uint32",
          "name": "ret",
          "type": "uint32"
        }
      ],
      "payable": false,
      "stateMutability": "view",
      "type": "function"
    },
    {
      "constant": false,
      "inputs": [
        {
          "internalType": "uint32",
          "name": "_amount",
          "type": "uint32"
        },
        {
          "internalType": "address",
          "name": "_creditor",
          "type": "address"
        },
        {
          "internalType": "bool",
          "name": "_path_formed",
          "type": "bool"
        },
        {
          "internalType": "address[]",
          "name": "_path",
          "type": "address[]"
        }
      ],
      "name": "add_IOU",
      "outputs": [],
      "payable": false,
      "stateMutability": "nonpayable",
      "type": "function"
    }
  ],
  "bytecode": "0x60806040526000805534801561001457600080fd5b50610d3c806100246000396000f3fe608060405234801561001057600080fd5b50600436106100575760003560e01c80631f7b6d321461005c5780635e83bae01461007a578063713584a6146100d65780638e50b6351461015a578063b58a7fc61461024e575b600080fd5b6100646102ef565b6040518082815260200191505060405180910390f35b6100bc6004803603602081101561009057600080fd5b81019080803573ffffffffffffffffffffffffffffffffffffffff1690602001909291905050506102f5565b604051808215151515815260200191505060405180910390f35b610138600480360360408110156100ec57600080fd5b81019080803573ffffffffffffffffffffffffffffffffffffffff169060200190929190803573ffffffffffffffffffffffffffffffffffffffff169060200190929190505050610315565b604051808263ffffffff1663ffffffff16815260200191505060405180910390f35b61024c6004803603608081101561017057600080fd5b81019080803563ffffffff169060200190929190803573ffffffffffffffffffffffffffffffffffffffff169060200190929190803515159060200190929190803590602001906401000000008111156101c957600080fd5b8201836020820111156101db57600080fd5b803590602001918460208302840111640100000000831117156101fd57600080fd5b919080806020026020016040519081016040528093929190818152602001838360200280828437600081840152601f19601f820116905080830192505050505050509192919290505050610480565b005b61029a6004803603604081101561026457600080fd5b81019080803573ffffffffffffffffffffffffffffffffffffffff16906020019092919080359060200190929190505050610998565b604051808363ffffffff1663ffffffff1681526020018273ffffffffffffffffffffffffffffffffffffffff1673ffffffffffffffffffffffffffffffffffffffff1681526020019250505060405180910390f35b60005481565b60026020528060005260406000206000915054906101000a900460ff1681565b600060011515600260008573ffffffffffffffffffffffffffffffffffffffff1673ffffffffffffffffffffffffffffffffffffffff16815260200190815260200160002060009054906101000a900460ff1615151415610475576000600160008573ffffffffffffffffffffffffffffffffffffffff1673ffffffffffffffffffffffffffffffffffffffff168152602001908152602001600020905060008090505b8180549050811015610472578373ffffffffffffffffffffffffffffffffffffffff168282815481106103e857fe5b9060005260206000200160000160049054906101000a900473ffffffffffffffffffffffffffffffffffffffff1673ffffffffffffffffffffffffffffffffffffffff1614156104655781818154811061043e57fe5b9060005260206000200160000160009054906101000a900463ffffffff169250505061047a565b80806001019150506103b9565b50505b600090505b92915050565b600033905060001515600260008373ffffffffffffffffffffffffffffffffffffffff1673ffffffffffffffffffffffffffffffffffffffff16815260200190815260200160002060009054906101000a900460ff16151514156106fa576104e6610cd1565b60405180604001604052808763ffffffff1681526020018673ffffffffffffffffffffffffffffffffffffffff1681525090506001600260008473ffffffffffffffffffffffffffffffffffffffff1673ffffffffffffffffffffffffffffffffffffffff16815260200190815260200160002060006101000a81548160ff021916908315150217905550600160008373ffffffffffffffffffffffffffffffffffffffff1673ffffffffffffffffffffffffffffffffffffffff1681526020019081526020016000208190806001815401808255809150509060018203906000526020600020016000909192909190915060008201518160000160006101000a81548163ffffffff021916908363ffffffff16021790555060208201518160000160046101000a81548173ffffffffffffffffffffffffffffffffffffffff021916908373ffffffffffffffffffffffffffffffffffffffff1602179055505050507f914e9bebd007705f7064bec9067f4cfa36c793a59d8e85479925784245610b3a828688604051808473ffffffffffffffffffffffffffffffffffffffff1673ffffffffffffffffffffffffffffffffffffffff1681526020018373ffffffffffffffffffffffffffffffffffffffff1673ffffffffffffffffffffffffffffffffffffffff1681526020018263ffffffff1663ffffffff168152602001935050505060405180910390a150610709565b6107078185876001610a02565b505b8215610991576000825190508473ffffffffffffffffffffffffffffffffffffffff168360008151811061073957fe5b602002602001015173ffffffffffffffffffffffffffffffffffffffff161480156107a557508173ffffffffffffffffffffffffffffffffffffffff1683600183038151811061078557fe5b602002602001015173ffffffffffffffffffffffffffffffffffffffff16145b610817576040517f08c379a00000000000000000000000000000000000000000000000000000000081526004018080602001828103825260198152602001807f56616c696420656e64706f696e74732072657175697265642e0000000000000081525060200191505060405180910390fd5b600086905060008090505b600185510381101561089c57600061086386838151811061083f57fe5b602002602001015187600185018151811061085657fe5b6020026020010151610315565b905060008163ffffffff16141561087657fe5b8263ffffffff168163ffffffff16101561088e578092505b508080600101915050610822565b5060008090505b60018551038110156108f3576108e58582815181106108be57fe5b60200260200101518660018401815181106108d557fe5b6020026020010151846000610a02565b5080806001019150506108a3565b506109018387836000610a02565b507f217948261bee896e64ed16698cd1db66e0ce30be011c5ff9152a615f8a8cccf0848260405180806020018363ffffffff1663ffffffff168152602001828103825284818151815260200191508051906020019060200280838360005b8381101561097a57808201518184015260208101905061095f565b50505050905001935050505060405180910390a150505b5050505050565b600160205281600052604060002081815481106109b157fe5b90600052602060002001600091509150508060000160009054906101000a900463ffffffff16908060000160049054906101000a900473ffffffffffffffffffffffffffffffffffffffff16905082565b60008460011515600260008373ffffffffffffffffffffffffffffffffffffffff1673ffffffffffffffffffffffffffffffffffffffff16815260200190815260200160002060009054906101000a900460ff16151514610a6257600080fd5b6000600160008873ffffffffffffffffffffffffffffffffffffffff1673ffffffffffffffffffffffffffffffffffffffff168152602001908152602001600020905060008090505b8180549050811015610cc1578673ffffffffffffffffffffffffffffffffffffffff16828281548110610ada57fe5b9060005260206000200160000160049054906101000a900473ffffffffffffffffffffffffffffffffffffffff1673ffffffffffffffffffffffffffffffffffffffff161415610cb4578415610b7c5785828281548110610b3757fe5b9060005260206000200160000160008282829054906101000a900463ffffffff160192506101000a81548163ffffffff021916908363ffffffff160217905550610bca565b85828281548110610b8957fe5b9060005260206000200160000160008282829054906101000a900463ffffffff160392506101000a81548163ffffffff021916908363ffffffff1602179055505b7f8314b1bacb22b344fccfc2c9e61718342b6fde81d5ecda6ce11118f43884add188888888604051808573ffffffffffffffffffffffffffffffffffffffff1673ffffffffffffffffffffffffffffffffffffffff1681526020018473ffffffffffffffffffffffffffffffffffffffff1673ffffffffffffffffffffffffffffffffffffffff1681526020018363ffffffff1663ffffffff1681526020018215151515815260200194505050505060405180910390a1818181548110610c8d57fe5b9060005260206000200160000160009054906101000a900463ffffffff1693505050610cc8565b8080600101915050610aab565b6000935050505b50949350505050565b6040518060400160405280600063ffffffff168152602001600073ffffffffffffffffffffffffffffffffffffffff168152509056fea265627a7a723158206d81828ae92407073148dacc84303a6863610f9ff9d54599b1c3ca5231db8dfa64736f6c63430005100032",
  "source": "// Please paste your contract's solidity code here\n// Note that writing a contract here WILL NOT deploy it and allow you to access it from your client\n// You should write and develop your contract in Remix and then, before submitting, copy and paste it here\n\n\npragma solidity ^0.5.16;\n\ncontract BlockchainSplitwise {\n\n    uint public length = 0;\n\n    struct Creditor {\n      uint32 amt_owed;\n      address addr;\n    }\n\n    mapping (address => Creditor[]) public debtors;      \n    mapping (address => bool) public areDebtors;\n\n    event LogAdd_IOU(address debtor, address creditor, uint32 amount);\n    event LogResolvedCycle(address[] _path, uint32 amount);\n    event LogAdjustedDebt(address debtor, address creditor, uint32 amount, bool sign);\n\n\n    modifier isDebtor (address debtor) { require(areDebtors[debtor] == true); _; }\n\n    /* Returns the amount that the debtor owes the creditor. \n      Precondition: no cycles are in the graph. */\n    function lookup(address debtor, address creditor) \n        public view returns (uint32 ret){\n        if (areDebtors[debtor] == true) {\n            Creditor[] storage creditors = debtors[debtor];\n            for (uint i = 0; i < creditors.length; i++){\n                if (creditors[i].addr == creditor){\n                    return creditors[i].amt_owed;\n                }\n            }\n        }\n        return 0;\n    } \n\n    /* Adjusts the debt between debtor and creditor by amount */\n    function adjustDebt(address debtor, address creditor, uint32 amt, bool sign)\n        internal isDebtor(debtor) returns (uint32 amt_new){\n        Creditor[] storage creditors = debtors[debtor];\n        uint i = 0;\n        while (i < creditors.length){\n            if (creditors[i].addr == creditor){\n                if (sign) {\n                    creditors[i].amt_owed += amt;\n                } else {\n                    creditors[i].amt_owed -= amt;\n                }\n                emit LogAdjustedDebt(debtor, creditor, amt, sign);\n                return creditors[i].amt_owed;\n            }\n            i++;\n        }     \n        return 0;\n    }\n\n    /* Informs the contract that msg.sender now owes amount \n      more dollars to creditor. If money is already owed, this \n      adds to that, amount must be positive.  \n      Precondition: no cycles are in the graph. \n      If _path is provided, it is from creditor to debtor */    \n    function add_IOU(uint32 _amount, address _creditor, bool _path_formed, address[] memory _path)\n        public {\n\n        address debtor = msg.sender; \n        if (areDebtors[debtor] == false) {\n            // Add the debt from _debtor to _creditor first\n            Creditor memory creditor = Creditor({amt_owed: _amount, addr: _creditor});\n            areDebtors[debtor] = true;\n            debtors[debtor].push(creditor);\n            emit LogAdd_IOU(debtor, _creditor, _amount);\n        } else {\n            adjustDebt(debtor, _creditor, _amount, true);        \n        }\n\n\n        if (_path_formed){\n            uint path_len = _path.length;\n            require(_path[0] == _creditor && _path[path_len-1] == debtor, \"Valid endpoints required.\");\n            // If there is a path from _creditor to _debtor, determine the lowest amount\n            uint32 path_min_amt = _amount;\n            for (uint i = 0; i < _path.length-1; i++){\n                uint32 path_i_amt = lookup(_path[i], _path[i+1]);\n                assert(path_i_amt != 0);\n                if (path_i_amt < path_min_amt){\n                    path_min_amt = path_i_amt;\n                }\n            }\n            for (uint i = 0; i < _path.length-1; i++){\n                adjustDebt(_path[i], _path[i+1], path_min_amt, false);\n            }\n            adjustDebt(debtor, _creditor, path_min_amt, false); \n            emit LogResolvedCycle(_path, path_min_amt);\n        } \n\n    }\n}\n",
  "sourcePath": "/home/marzieh/Desktop/CA3/Project/contracts/BlockchainSplitwise.sol",
  "compiler": {
    "name": "solc",
    "version": "0.5.16+commit.9c3226ce.Emscripten.clang"
  },
  "schemaVersion": "3.4.1",
  "updatedAt": "2021-07-16T18:33:41.357Z",
  "networkType": "ethereum",
  "devdoc": {
    "methods": {}
  },
  "userdoc": {
    "methods": {}
  }
}